:100000000C942A000C943F000C943F000C943F0089
:100010000C943F000C943F000C943F000C943F0064
:100020000C943F000C943F000C943F000C943F0054
:100030000C943F000C943F000C943F000C943F0044
:100040000C943F000C943F000C943F000C943F0034
:100050000C943F0011241FBECFE5D8E0DEBFCDBF1A
:1000600010E0A0E6B0E0E0EEFFE002C005900D92E7
:10007000A03CB107D9F70E944F010C94EE070C94F5
:100080000000DF93CF9300D000D0CDB7DEB7198248
:100090001A821B821C829C01442737FD4095542FF5
:1000A00060ED77E00EC0CB010197F1F789819A816D
:1000B000AB81BC810196A11DB11D89839A83AB835D
:1000C000BC8389819A81AB81BC8182179307A40785
:1000D000B50748F30F900F900F900F90CF91DF91DD
:1000E0000895DF93CF9300D000D0CDB7DEB719824B
:1000F0001A821B821C829C01442737FD4095542F95
:1001000062E00EC0862F8A95F1F789819A81AB81D2
:10011000BC810196A11DB11D89839A83AB83BC83E9
:1001200089819A81AB81BC8182179307A407B507A7
:1001300048F30F900F900F900F90CF91DF9108959B
:10014000D898D998DA9A88E382BBDA9820EF30E021
:10015000C9010197F1F7DA9A8EE082BBDA98C901FA
:100160000197F1F7DA9A86E082BBDA98C901019724
:10017000F1F70895DF93CF9300D000D0CDB7DEB76D
:10018000D898D998DA9A81E082BBDA9819821A82D3
:100190001B821C8220ED37E00EC0C9010197F1F7E8
:1001A00089819A81AB81BC810196A11DB11D898392
:1001B0009A83AB83BC8389819A81AB81BC81883768
:1001C0009105A105B10548F30F900F900F900F9086
:1001D000CF91DF910895D89AD998DA9A82BBDA98AC
:1001E00080EF90E00197F1F70895DF93CF9300D06F
:1001F00000D0CDB7DEB79C01D898D998DA9A198289
:100200001A821B821C8240ED57E00EC0CA01019782
:10021000F1F789819A81AB81BC810196A11DB11D45
:1002200089839A83AB83BC8389819A81AB81BC81AA
:100230000097A105B10551F361502F5F3F4F86E054
:10024000220F331F8A95E1F7620F62BB19821A826F
:100250001B821C8220ED37E00EC0C9010197F1F727
:1002600089819A81AB81BC810196A11DB11D8983D1
:100270009A83AB83BC8389819A81AB81BC810097CF
:10028000A105B10551F3DA9880EF90E00197F1F7FD
:100290000F900F900F900F90CF91DF9108952F92B4
:1002A0003F924F925F926F927F928F929F92AF9206
:1002B000BF92CF92DF92EF92FF920F931F93DF9343
:1002C000CF93CDB7DEB7EC970FB6F894DEBF0FBE75
:1002D000CDBFDE011596E6E8F0E080E101900D92D9
:1002E0008150E1F7DE015596E9E9F0E080E1019007
:1002F0000D928150E1F79FEF91BB12BA87EF8ABB55
:100300001BBA14BA95BB83E487B980EE86B980ED39
:1003100097E028EC30E0F9013197F1F70197D9F730
:10032000DE019596ECEAF0E080E101900D928150BB
:10033000E1F70E94A0000E94BA0045E0C42ED12C33
:10034000CC0EDD1E76018E010B5E1F4FD7018D9105
:100350007D0190E00E94EB00E016F106B9F782E023
:1003600090E061E070E00E94F500870135E2832EA5
:10037000912C8C0E9D1EF80181918F0190E00E94BE
:10038000EB0008151905B9F719821A821B821C8225
:1003900020ED37E00EC0C9010197F1F789819A81FC
:1003A000AB81BC810196A11DB11D89839A83AB836A
:1003B000BC8389819A81AB81BC81885B9B40A040D2
:1003C000B04048F30E94BA00D6018D916D0190E0D3
:1003D0000E94EB00CE14DF04B9F70E94BA0080E05F
:1003E00090E0A0E7B2E48FAB98AFA9AFBAAF0F2E01
:1003F000F0E02F2EF0E03F2EF0E04F2EF1E45F2EE4
:10040000F02DDE01D596BCAFABAF83B3EFE7F0E0E4
:10041000E81BF109E230F10599F0E330F10524F42D
:10042000E130F10559F507C0E430F10591F0E8300D
:10043000F10521F519C080E090E0A8E4B2E404C021
:1004400080E090E0A0EAB2E48FAB98AFA9AFBAAF7A
:1004500015C00F2EF0E02F2EF0E03F2EF0E24F2ED1
:10046000F1E45F2EF02D0AC00F2EF0E02F2EF0E009
:100470003F2EF0E84F2EF0E45F2EF02D64B175B101
:1004800080E090E00E94FD0320E030E048EC53E47F
:100490000E94B30420E030E040E85AE30E94B30435
:1004A0006B017C016FA978AD89AD9AADA70196016A
:1004B0000E9463033B014C0181E090E061E070E049
:1004C0000E94F500ADB7BEB718970FB6F894BEBF3F
:1004D0000FBEADBF0DB71EB70F5F1F4FE5E2F0E0D7
:1004E000EC0FFD1F1296FC93EE931197E0E6F0E0FF
:1004F000D8011396FC93EE9312976FA978AD89AD4E
:100500009AAD0E94CC03660F771F660F771FD80144
:1005100015967C936E931497C701B6010E94CC0385
:10052000F801778366830E9416059E012B5D3F4F7D
:100530003EAB2DAB89018DB79EB708960FB6F894E8
:100540009EBF0FBE8DBFD8018D918D0190E00E949E
:10055000EB00EBADFCAD0E171F07A9F782E090E0B2
:1005600061E070E00E94F500C401B3010E94CC0379
:100570005B016C017B012DB73EB72A5030400FB6AE
:10058000F8943EBF0FBE2DBFCDB6DEB60894C11C99
:10059000D11CE5E2F0E0EC0FFD1FADB7BEB712963F
:1005A000FC93EE931197E2E7F0E0D6011396FC93EB
:1005B000EE931297C201B1010E94CC03660F771F20
:1005C000660F771FD60115967C936E931497179636
:1005D000BC92AE9216970027F7FC0095102FC80129
:1005E000B7010E94FF039B01AC01C401B3010E944B
:1005F000630320E030E040E251E40E94B3040E9433
:10060000CC03CB0177FF03C0909581959F4FF601F6
:10061000918780870E941605C201B10120E030E079
:1006200040E05FE30E94B3049B01AC018DB79EB72D
:100630000A960FB6F8949EBF0FBE8DBFC401B301DA
:100640000E94AF0418160CF4DC98C201B10120E03E
:1006500030E040E05FEB0E94B3049B01AC01C401B9
:10066000B3010E94C80388230CF4DC9AADA9BEA98B
:100670008D91BEABADAB90E00E94EB00EDA9FEA961
:100680002BAD3CADE217F30789F719821A821B8262
:100690001C820FC080ED97E00197F1F789819A8164
:1006A000AB81BC810196A11DB11D89839A83AB8367
:1006B000BC8389819A81AB81BC810A97A105B10570
:1006C00008F0A3CEE7CF5058BB27AA270ED00DC104
:1006D000FED030F003D120F031F49F3F11F41EF42E
:1006E000F3C00EF4E095E7FBE9C0E92F0FD180F3EA
:1006F000BA17620773078407950718F071F49EF51F
:1007000027C10EF4E0950B2EBA2FA02D0B01B901D5
:1007100090010C01CA01A0011124FF27591B99F077
:10072000593F50F4503E68F11A16F040A22F232F83
:10073000342F4427585FF3CF469537952795A795D3
:10074000F0405395C9F77EF41F16BA0B620B730B7A
:10075000840BBAF09150A1F0FF0FBB1F661F771FEB
:10076000881FC2F70EC0BA0F621F731F841F48F4A0
:10077000879577956795B795F7959E3F08F0B3CF26
:100780009395880F08F09927EE0F97958795089510
:1007900071D008F481E0089504D06894B111D9C0F3
:1007A0000895BCD088F09F5790F0B92F9927B75182
:1007B000A0F0D1F0660F771F881F991F1AF0BA9525
:1007C000C9F712C0B13081F0C3D0B1E00895C0C004
:1007D000672F782F8827B85F39F0B93FCCF386951B
:1007E00077956795B395D9F73EF490958095709578
:1007F00061957F4F8F4F9F4F0895E89409C097FBF5
:100800003EF490958095709561957F4F8F4F9F4FE7
:100810009923A9F0F92F96E9BB279395F69587952B
:1008200077956795B795F111F8CFFAF4BB0F11F4EE
:1008300060FF1BC06F5F7F4F8F4F9F4F16C0882395
:1008400011F096E911C0772321F09EE8872F762FCB
:1008500005C0662371F096E8862F70E060E02AF00C
:100860009A95660F771F881FDAF7880F96958795F8
:1008700097F90895990F0008550FAA0BE0E8FEEFCD
:1008800016161706E807F907C0F012161306E40754
:10089000F50798F0621B730B840B950B39F40A264D
:1008A00061F0232B242B252B21F408950A2609F42B
:1008B000A140A6958FEF811D811D089597F99F672F
:1008C00080E870E060E008959FEF80EC08950024D8
:1008D0000A941616170618060906089500240A94A5
:1008E00012161306140605060895092E0394000C2B
:1008F00011F4882352F0BB0F40F4BF2B11F460FFBA
:1009000004C06F5F7F4F8F4F9F4F089557FD9058E2
:10091000440F551F59F05F3F71F04795880F97FBC3
:10092000991F61F09F3F79F087950895121613067D
:100930001406551FF2CF4695F1DF08C016161706AC
:100940001806991FF1CF86957105610508940895E1
:10095000E894BB2766277727CB0197F908958ADFAC
:1009600008F48FEF08950BD0C0CFB1DF28F0B6DFC9
:1009700018F0952309F0A2CFA7CF1124EACFC6DF44
:10098000A0F3959FD1F3950F50E0551F629FF001A2
:10099000729FBB27F00DB11D639FAA27F00DB11DFB
:1009A000AA1F649F6627B00DA11D661F829F222784
:1009B000B00DA11D621F739FB00DA11D621F839F0B
:1009C000A00D611D221F749F3327A00D611D231FE1
:1009D000849F600D211D822F762F6A2F11249F572F
:1009E00050408AF0E1F088234AF0EE0FFF1FBB1F52
:1009F000661F771F881F91505040A9F79E3F5105F1
:100A000070F05CCFA6CF5F3FECF3983EDCF38695A9
:100A100077956795B795F795E7959F5FC1F7FE2B9B
:100A2000880F911D9695879597F90895AEE0B0E0EF
:100A3000ECE1F5E00C94C5070D891E8986E08C83F6
:100A40001A8309838FEF9FE79E838D839E01275E24
:100A50003F4FCE0101966F89788DA9010E943A051A
:100A60002F813885020F131FF80110822E96E4E0C3
:100A70000C94E107ABE0B0E0E0E4F5E00C94B707DC
:100A80003C012B015A01FC0117821682838181FDF2
:100A900003C06FEF7FEFC6C19AE0892E1E01089454
:100AA000211C311CF3012381F20123FD859123FFD9
:100AB00081912F01882309F4B2C1853239F423FDD5
:100AC000859123FF81912F01853229F490E0B301B4
:100AD0000E942D07E7CF982FFF24EE249924FFE1F1
:100AE000FF15D0F09B3269F09C3228F4903259F017
:100AF000933291F40EC09D3249F0903369F441E095
:100B000024C052E0F52A84E0F82A28C098E0F92AA7
:100B100025C0E0E1FE2A22C0F7FC29C0892F8053BE
:100B20008A3070F4F6FE05C0989C902C1124980E23
:100B300015C0E89CE02C1124E80EF0E2FF2A0EC05C
:100B40009E3229F4F6FC6BC140E4F42A07C09C36BF
:100B500019F450E8F52A02C0983649F4F20123FD51
:100B6000959123FF91912F01992309F0B8CF892FF7
:100B70008554833018F08052833038F444E050E0DC
:100B8000A40EB51E5FE359830FC0933631F093373F
:100B900079F0933509F056C020C0F5018081898332
:100BA00042E050E0A40EB51E610101E010E012C069
:100BB000F501C080D180F6FC03C06FEF7FEF02C06B
:100BC000692D70E042E050E0A40EB51EC6010E94FF
:100BD00022078C015FE7F52214C0F501C080D180A7
:100BE000F6FC03C06FEF7FEF02C0692D70E042E0BA
:100BF00050E0A40EB51EC6010E9417078C0150E8F4
:100C0000F52AF3FE07C01AC080E290E0B3010E940B
:100C10002D07EA948E2D90E008171907A8F30EC04F
:100C2000F601F7FC8591F7FE81916F0190E0B30129
:100C30000E942D07E110EA940150104001151105A2
:100C400079F7EAC0943611F0993669F5F7FE08C0D5
:100C5000F501208131814281538184E090E00AC016
:100C6000F501808191819C01442737FD4095542FE7
:100C700082E090E0A80EB91E9FE6F92257FF09C056
:100C800050954095309521953F4F4F4F5F4FE0E88D
:100C9000FE2ACA01B901A1012AE030E00E945907E9
:100CA000D82ED21840C0953729F41F2D1F7E2AE078
:100CB00030E01DC01F2D197F9F3661F0903720F462
:100CC000983509F0ACC00FC0903739F0983709F06B
:100CD000A6C004C028E030E00AC0106114FD146012
:100CE00020E130E004C014FD166020E132E017FF7F
:100CF00008C0F501608171818281938144E050E0F8
:100D000008C0F50180819181BC0180E090E042E063
:100D100050E0A40EB51EA1010E945907D82ED2188A
:100D20008FE7F82EF122F6FE0BC05EEFF522D91404
:100D300038F4F4FE07C0F2FC05C08FEEF82202C0C2
:100D40001D2D01C0192DF4FE0DC0FE01ED0DF11D8C
:100D50008081803319F499EEF92208C01F5FF2FEFA
:100D600005C003C08F2D867809F01F5F0F2DF3FC9F
:100D700014C0F0FE0FC01E1510F09D2C0BC09D2C52
:100D80009E0C911A1E2D06C080E290E0B3010E94D5
:100D90002D071F5F1E15C0F304C01E1510F4E11AC5
:100DA00001C0EE2404FF0FC080E390E0B3010E9475
:100DB0002D0702FF1DC001FD03C088E790E00EC0B3
:100DC00088E590E00BC0802F867891F001FF02C08B
:100DD0008BE201C080E2F7FC8DE290E0B3010E945B
:100DE0002D0706C080E390E0B3010E942D079A947E
:100DF000D914C0F3DA94F101ED0DF11D808190E07A
:100E0000B3010E942D07DD20A9F706C080E290E023
:100E1000B3010E942D07EA94EE20C1F743CEF301FF
:100E200066817781CB012B96E2E10C94D307FC011C
:100E30000590615070400110D8F7809590958E0F05
:100E40009F1F0895FC016150704001900110D8F778
:100E5000809590958E0F9F1F08950F931F93CF93AA
:100E6000DF938C01EB018B8181FF1BC082FF0DC0E2
:100E70002E813F818C819D812817390764F4E88198
:100E8000F9810193F983E88306C0E885F985802F0D
:100E90000995892B31F48E819F8101969F838E83E2
:100EA00002C00FEF1FEFC801DF91CF911F910F918B
:100EB0000895FA01AA27283051F1203181F1E894F0
:100EC0006F936E7F6E5F7F4F8F4F9F4FAF4FB1E03D
:100ED0003ED0B4E03CD0670F781F891F9A1FA11D38
:100EE000680F791F8A1F911DA11D6A0F711D811D39
:100EF000911DA11D20D009F468943F912AE0269FFE
:100F000011243019305D3193DEF6CF010895462F5C
:100F10004770405D4193B3E00FD0C9F7F6CF462F3D
:100F20004F70405D4A3318F0495D31FD40524193A6
:100F300002D0A9F7EACFB4E0A69597958795779563
:100F40006795BA95C9F700976105710508959B01EA
:100F5000AC010A2E06945795479537952795BA9573
:100F6000C9F7620F731F841F951FA01D08952F924C
:100F70003F924F925F926F927F928F929F92AF9229
:100F8000BF92CF92DF92EF92FF920F931F93CF9376
:100F9000DF93CDB7DEB7CA1BDB0B0FB6F894DEBF0D
:100FA0000FBECDBF09942A88398848885F846E8433
:100FB0007D848C849B84AA84B984C884DF80EE807D
:100FC000FD800C811B81AA81B981CE0FD11D0FB686
:100FD000F894DEBF0FBECDBFED010895F894FFCFAA
:100FE00053503D25336943202050563D25336943F6
:100FF0002000683D253269432020453D2534692C79
:101000002531694320004461776964204F6C656A2B
:101010006E696B202020202000422E2050617374C6
:1010200075737A6B61202020202020002020202052
:1010300020202020202020202020202020200000F0
:00000001FF
