:100000000C942A000C9434000C9434000C943400AA
:100010000C9434000C9434000C9434000C94340090
:100020000C9434000C9434000C9434000C94340080
:100030000C9434000C9434000C9434000C94340070
:100040000C9434000C9434000C9434000C94340060
:100050000C94340011241FBECFE5D8E0DEBFCDBF25
:100060000E9466000C94CC000C940000DF93CF93A8
:1000700000D000D0CDB7DEB719821A821B821C8255
:100080009C01442737FD4095542F6AEF70E00EC065
:10009000CB010197F1F789819A81AB81BC810196EF
:1000A000A11DB11D89839A83AB83BC8389819A8109
:1000B000AB81BC8182179307A407B50748F30F9063
:1000C0000F900F900F90CF91DF910895DF93CF9312
:1000D00000D000D0CDB7DEB78FEF81BB83E082BB0D
:1000E00020E030E063E070E04AEF50E027C0CB0151
:1000F000022E02C0880F991F0A94E2F7809582BBF6
:1001000019821A821B821C820EC0CA010197F1F764
:1001100089819A81AB81BC810196A11DB11D898322
:100120009A83AB83BC8389819A81AB81BC818436FD
:100130009105A105B10548F32F5F3F4F26303105EA
:10014000B4F226E030E0CB01022E02C0880F991FE6
:100150000A94E2F7809582BB19821A821B821C8264
:100160000EC0CA010197F1F789819A81AB81BC81E8
:100170000196A11DB11D89839A83AB83BC838981BC
:100180009A81AB81BC8184369105A105B10548F304
:0C01900021503040C1F6D2CFF894FFCFD0
:00000001FF
