:100000000C942A000C9434000C9434000C943400AA
:100010000C9434000C9434000C9434000C94340090
:100020000C9434000C9434000C9434000C94340080
:100030000C9434000C9434000C9434000C94340070
:100040000C9434000C9434000C9434000C94340060
:100050000C94340011241FBECFE5D4E0DEBFCDBF29
:100060000E943C000C94B4040C940000349BFECF1E
:10007000349A85B190E008952F923F924F925F920B
:100080006F927F928F929F92AF92BF92CF92DF92A8
:10009000EF92FF920F931F93CF93DF938CEF8ABB66
:1000A00087B3816187BB8FEF84BB80EE81BB59989A
:1000B00080B58F7B80BD86EC86B96624772448ECBA
:1000C000842E912CC1E0D0E034EB232E312C28EC8F
:1000D000422E512CB39B08C0959A96989798E1E0D0
:1000E000F0E00AE010E007C0969A95989798E0E053
:1000F000F0E004E610E05D9BFECF369A20EE27B9D3
:10010000349BFECF349A85B190E0805590409C019D
:10011000229DC001239D900D329D900D112461E917
:1001200070E00E948D04AB01369A31EE37B9349BF2
:10013000FECF349A85B190E08C38910514F49A0181
:1001400004C022273327241B350BA9014E515040F0
:10015000EF2B09F073C1C9018C9685399105C0F464
:1001600088EC8816910424F098EC892E912C0BC011
:100170000894811C911C205130402D31310518F418
:100180000894811C911C1C161D060CF473C270C2CD
:100190001C161D060CF04AC0CE0183709070813091
:1001A000910519F4A89AA99805C08230910521F407
:1001B000A898A99AAA9805C0039721F4A898A99885
:1001C000AA9ADF98CE0183709070892B21F4A898A9
:1001D000A998AA98DF9A219628E28216910434F110
:1001E000DB9AC09AAC9AAD9AAE9AAF9ADE9ADC9A34
:1001F000C498DA9830E583169104C4F0DF9ADD9A4A
:10020000DC98DE9888E78816910484F0AA9AAB9A65
:10021000AF98AE9820EA8216910444F0A99AAD985E
:1002200038EC8316910411F4A89AAC98CA01875946
:100230009F4F833D9105B8F088EC6816710424F057
:1002400088EC682E712C0CC00894611C711CCA01CA
:100250008A569F4F8D52914018F00894611C711C72
:10026000D7FF0CC20DC2D7FF4DC0222733272C1B4E
:100270003D0BC901837090708130910519F4AC9ADF
:10028000AD9805C08230910521F4AC98AD9AAE9836
:1002900005C0039721F4AC98AD98AE9ADE98237010
:1002A0003070232B21F4AC98AD98AE98DE9A21974C
:1002B00038E26316710434F1DA9AC49AA89AA99ABA
:1002C000AA9AAB9ADF9ADD9AC098DB9880E5681607
:1002D0007104C4F0DE9ADC9ADD98DF9828E7621694
:1002E000710484F0AE9AAF9AAB98AA9830EA63167C
:1002F000710444F0AD9AA99888EC6816710411F461
:10030000AC9AA89828EC8216910479F485B315BAB2
:1003100085B38F6085BB8BB383708BBB8BB3886ACF
:100320008BBB88B38E7E88BBC09A38EC6316710491
:1003300079F485B315BA85B3806F85BB8BB38370B1
:100340008BBB8BB384658BBB88B38E7E88BBDC9AFA
:10035000CA0188599F4F4D9730F04C5450404D3151
:10036000510508F042C11C161D069CF588EC881644
:1003700091040CF060C085B315BA85B3806F85BB5E
:100380008BB383708BBB8BB384658BBB88B38E7E42
:1003900088BBDC9A29E2821691040CF44CC0AC981C
:1003A000C09ADB9A31E5831691040CF444C0AD98F1
:1003B000DD9ADF9A89E788169104ECF1AE98AF9840
:1003C000AB9AAA9A21EA82169104ACF1AD98A99A47
:1003D00032C0209709F409C138EC631671045CF54A
:1003E00085B315BA85B38F6085BB8BB383708BBB28
:1003F0008BB3886A8BBB88B38E7E88BBC09A89E238
:1004000068167104C4F0A898C49ADA9A21E56216B5
:1004100071048CF0A998DC9ADE9A39E763167104AE
:1004200054F0AA98AB98AF9AAE9A81EA6816710414
:1004300014F0A998AD9AC0E0D0E0D7C0C901865B9E
:100440009F4F4D9728F02A5630402D31310540F40A
:1004500085B315BA8BB383708BBB88B38E7E88BB94
:10046000CA01865B9F4F0E9720F0CA01CD970E9769
:1004700048F485B315BA8BB383708BBB88B38E7E7B
:1004800088BBA89ACA01CB960E9720F0CA018E9716
:100490000E9750F485B315BA8BB383708BBB88B3BA
:1004A0008E7E88BBA89AA99ACA018C960E9720F0D6
:1004B000CA014F970E9758F485B315BA8BB3837062
:1004C0008BBB88B38E7E88BBA89AA99AAA9ACA01C8
:1004D0004D960E9720F0CA0140970E9760F485B3B1
:1004E00015BA8BB383708BBB88B38E7E88BBA89AFA
:1004F000A99AAA9ADF9ACA010E964D9768F485B315
:1005000015BA8BB383708BBB88B38E7E88BBA89AD9
:10051000A99AAA9ADF9ADB9ACA018A5690400E9746
:1005200028F0CA0189589F4F0E9748F485B315BA31
:100530008BB383708BBB88B38E7E88BBAC9ACA01A9
:10054000895790400E9728F0CA018A579F4F0E97FF
:1005500050F485B315BA8BB383708BBB88B38E7E92
:1005600088BBAC9AAD9ACA01885890400E9728F083
:10057000CA018B569F4F0E9758F485B315BA8BB3AB
:1005800083708BBB88B38E7E88BBAC9AAD9AAE9AD3
:10059000CA01875990400E9728F0CA018C559F4F89
:1005A0000E9760F485B315BA8BB383708BBB88B399
:1005B0008E7E88BBAC9AAD9AAE9ADE9ACA01865AF4
:1005C00090400E9728F04D545F4F4E30510568F41F
:1005D00085B315BA8BB383708BBB88B38E7E88BB13
:1005E000AC9AAD9AAE9ADE9ADA9AB801882777FD6E
:1005F0008095982F0E9476035B016C0120E030E02B
:100600004AE754E40E9402047B018C0120E030E0C0
:1006100040E85FE30E94440388231CF461E070E03B
:1006200023C0C801B70120E03FEF4FE757E40E9425
:10063000FE031816ACF4C601B50120E030E040E23C
:1006400051E40E9402040E94480306C084E690E040
:100650000197F1F76150704061157105B9F73ACD16
:10066000C801B7010E944803CB010197F1F732CDD1
:10067000C1E0D0E03201681879088ECDCFEFDFEF0E
:10068000420186189708F1CD6CD008F481E00895F6
:1006900094D088F09F5790F0B92F9927B751A0F0C8
:1006A000D1F0660F771F881F991F1AF0BA95C9F706
:1006B00012C0B13081F09BD0B1E0089598C0672F8F
:1006C000782F8827B85F39F0B93FCCF386957795B6
:1006D0006795B395D9F73EF490958095709561959F
:1006E0007F4F8F4F9F4F0895E89409C097FB3EF4CA
:1006F00090958095709561957F4F8F4F9F4F99236F
:10070000A9F0F92F96E9BB279395F69587957795EC
:100710006795B795F111F8CFFAF4BB0F11F460FFAC
:100720001BC06F5F7F4F8F4F9F4F16C0882311F004
:1007300096E911C0772321F09EE8872F762F05C018
:10074000662371F096E8862F70E060E02AF09A95B3
:10075000660F771F881FDAF7880F9695879597F9A8
:100760000895990F0008550FAA0BE0E8FEEF161642
:100770001706E807F907C0F012161306E407F50795
:1007800098F0621B730B840B950B39F40A2661F009
:10079000232B242B252B21F408950A2609F4A140AC
:1007A000A6958FEF811D811D089557FD9058440F28
:1007B000551F59F05F3F71F04795880F97FB991FC0
:1007C00061F09F3F79F0879508951216130614067D
:1007D000551FF2CF4695F1DF08C01616170618060A
:1007E000991FF1CF86957105610508940895E894E5
:1007F000BB2766277727CB0197F90895B2DF08F466
:100800008FEF08950BD078C069D028F06ED018F023
:10081000952309F05AC05FC01124EACFC6DFA0F3C8
:10082000959FD1F3950F50E0551F629FF001729F85
:10083000BB27F00DB11D639FAA27F00DB11DAA1FA4
:10084000649F6627B00DA11D661F829F2227B00DF1
:10085000A11D621F739FB00DA11D621F839FA00D7C
:10086000611D221F749F3327A00D611D231F849FCC
:10087000600D211D822F762F6A2F11249F57504023
:100880008AF0E1F088234AF0EE0FFF1FBB1F661FBE
:10089000771F881F91505040A9F79E3F510570F077
:1008A00014C0A6CF5F3FECF3983EDCF386957795B6
:1008B0006795B795F795E7959F5FC1F7FE2B880F72
:1008C000911D9695879597F9089597F99F6780E808
:1008D00070E060E008959FEF80EC089500240A9492
:1008E0001616170618060906089500240A9412160B
:1008F0001306140605060895092E0394000C11F43E
:10090000882352F0BB0F40F4BF2B11F460FF04C0EA
:100910006F5F7F4F8F4F9F4F089597FB092E0726DC
:100920000AD077FD04D00CD006D000201AF47095C0
:1009300061957F4F0895F6F7909581959F4F0895A3
:10094000AA1BBB1B51E107C0AA1FBB1FA617B707F5
:1009500010F0A61BB70B881F991F5A95A9F7809511
:0C0960009095BC01CD010895F894FFCFE4
:00000001FF
